:10000000B8C00000D1C00000CFC00000CDC00000CB
:10001000CBC00000C9C00000C7C00000C5C00000C0
:10002000C3C00000C1C00000FCC300003AC400000F
:10003000BBC00000B9C00000B7C00000B5C00000E0
:10004000B3C00000B1C00000AFC00000ADC00000F0
:10005000ABC00000A9C00000A7C00000B7C20000EC
:10006000A3C00000A1C000009FC000009DC0000010
:100070009BC0000099C0000097C0000095C0000020
:1000800093C0000091C000008FC000008DC0000030
:100090008BC0000089C0000087C0000085C0000040
:1000A00083C0000081C000007FC000005365742041
:1000B00070696E210000010000EC001200020000D7
:1000C000FE00220022000020011500210000100186
:1000D0000900030000350104010309043901140279
:1000E0000309044F0120000001C126001201000293
:1000F00000000020C016790400010102000109027D
:100100002200010100C032090400000103000000C8
:1001100009211101000122150007058303200001B8
:100120000631FF0974A1537508150026FF009520BC
:1001300009758102C004030904140359006F007596
:1001400000720020004E0061006D0065000000207C
:100150000359006F007500720020005500530042E3
:10016000002000440065007600690063006500001F
:10017000000011241FBECFEFDAE0DEBFCDBF11E0DB
:10018000A0E0B1E0E6E4FFE002C005900D92A030EF
:10019000B107D9F713E0A0E0B1E001C01D92AA3089
:1001A000B107E1F7F8D1CDC62BCF8154863050F599
:1001B000683040F5442391F4E3E08E9FF001112470
:1001C00081E090E002C0880F991F6A95E2F721A1B3
:1001D000282B21A3809522A1282310C0E3E08E9F25
:1001E000F001112481E090E002C0880F991F6A9508
:1001F000E2F721A1282B21A322A1282B22A321E071
:1002000030E002C020E030E0C90108956F927F9293
:100210009F92AF92BF92CF92DF92EF92FF920F9395
:100220001F93CF93DF93962E94E6961718F420E051
:1002300030E058C0682E772483E190E0689EE001AA
:10024000699ED00D789ED00D1124C05FDE4F6A8369
:10025000E0900001F0900101009102011091030172
:10026000C801B70140D55B016C01692D70E080E0E9
:1002700090E039D520E030E048EC52E49BD49B017B
:10028000AC01C601B501BDD5FDD46B837C838D83E4
:100290009E83E61AF70A080B190BEF82F886098786
:1002A0001A876B877C878D879E87EF86F88A098BF4
:1002B0001A8B992021F48881698140E076DF8CEAED
:1002C00090E064D483E190E0689EF001699EF00DB7
:1002D000789EF00D1124E05FFE4F838194814ED40F
:1002E00021E030E0C901DF91CF911F910F91FF9084
:1002F000EF90DF90CF90BF90AF909F907F906F90E6
:100300000895AF92BF92CF92DF92EF92FF920F9338
:100310001F93CF93DF93A2D16093040170930501E3
:100320008093060190930701209108013091090103
:1003300040910A0150910B015B016C01A21AB30AB2
:10034000C40AD50AA0920C01B0920D01C0920E0110
:10035000D0920F01609308017093090180930A0104
:1003600090930B01C0E1D1E08A81882309F450C049
:10037000EB84FC840D851E851E141F0410061106D7
:100380009CF4D801C7018A199B09AC09BD098B8768
:100390009C87AD87BE87181619061A061B06C4F17E
:1003A0008881698140E033C08F859889A989BA899D
:1003B000181619061A061B065CF59C01AD012A19D0
:1003C0003B094C095D092F87388B498B5A8B1216D4
:1003D000130614061506E4F08B819C81AD81BE8165
:1003E0008E199F09A00BB10B8B879C87AD87BE87A9
:1003F0008F819885A985BA85821B930BA40BB50BB9
:100400008F87988BA98BBA8B8881698141E0CDDE7B
:10041000639682E0CE3FD80709F0A6CFDF91CF9157
:100420001F910F91FF90EF90DF90CF90BF90AF9012
:100430000895EF92FF920F931F93CF93DF937C0168
:1004400033D100E010E060E472E48FE090E0A801B6
:1004500097013AD5209300013093010140930201A6
:100460005093030122E42093100110921101209374
:10047000230161E0609324012093360132E0309340
:1004800037012093490193E090934A0120935C0146
:1004900057E050935D0184E480936F0110927001E6
:1004A000809382016093830180939501309396013C
:1004B0008093A8019093A90193E49093BB0146E037
:1004C0004093BC019093CE015093CF018093E10102
:1004D00035E03093E2018093F40194E09093F501CC
:1004E000809307024093080280931A0250931B02E4
:1004F00020932D0290932E022093400230934102CC
:10050000209353024093540286E4809366025093F2
:1005100067028093790240937A0280938C02309331
:100520008D0280939F029093A0028093B202609309
:10053000B3028093C5021092C6028093D802309312
:10054000D90285E48093EB024093EC02C0E1D1E054
:100550001A821B821C821D821E821F8218861986A7
:100560001A861B861C861D861E861F86188A198A77
:100570001A8A8881698140E018DE639682E0CE3F66
:10058000D80731F781E090E0DF91CF911F910F9173
:10059000FF90EF900895E8D080E197E220E931E004
:1005A000F9013197F1F70197D9F788EC90E041DF35
:1005B000892B21F082E461E041E0F7DD80E069E130
:1005C00025DE87E169E122DE9CDEFECF1F920F92DD
:1005D0000FB60F9211242F933F938F939F93AF9356
:1005E000BF938091020390910303A0910403B09103
:1005F0000503309106030196A11DB11D232F2D5F28
:100600002D3720F02D570196A11DB11D2093060313
:100610008093020390930303A0930403B093050314
:100620008091FE029091FF02A0910003B09101031E
:100630000196A11DB11D8093FE029093FF02A0932D
:100640000003B0930103BF91AF919F918F913F91B0
:100650002F910F900FBE0F901F9018959FB7F89491
:100660002091FE023091FF0240910003509101035E
:1006700086B5A89B06C08F3F21F02F5F3F4F4F4F9D
:100680005F4F9FBF542F432F322F2227280F311D3A
:10069000411D511D82E0220F331F441F551F8A95B3
:1006A000D1F7B901CA010895789484B5826084BDF8
:1006B00084B5816084BD85B5826085BD85B5816066
:1006C00085BDEEE6F0E0808181608083E1E8F0E0C6
:1006D0001082808182608083808181608083E0E8F5
:1006E000F0E0808181608083E1EBF0E080818460D4
:1006F0008083E0EBF0E0808181608083E1E9F0E0DD
:10070000808182608083808181608083E0E9F0E085
:10071000808181608083E1ECF0E08081846080836F
:10072000808182608083808181608083E3ECF0E05F
:10073000808181608083E0ECF0E080818260808352
:10074000E2ECF0E0808181608083EAE7F0E0808184
:1007500084608083808182608083808181608083E7
:10076000808180688083089581E08093D70080EA4B
:100770008093D80082E189BD09B400FEFDCF80E9F5
:100780008093D8001092E000109207038CE08093D1
:10079000E20078940895482F80910703882309F494
:1007A0003EC02FB7F89483E08093E900809109035D
:1007B000882341F08091E80085FD02C02FBF12C060
:1007C000109209039091E4009C5F33E08091E8006F
:1007D00085FD13C02FBF8091E400891729F481E0C3
:1007E000809309038FEF0895809107038823B9F060
:1007F0002FB7F8943093E900E9CF4093F10080914E
:10080000E80085FD06C08AE38093E80010920803A3
:1008100003C082E0809308032FBF80E008958FEF2C
:1008200008951F920F920FB60F9211248F939F93EA
:100830008091E1001092E100982F83FF0FC0109289
:10084000E90081E08093EB001092EC0082E280935B
:10085000ED0088E08093F0001092070392FF1AC029
:10086000809107038823B1F080910803882391F0D9
:10087000815080930803882369F483E08093E90022
:1008800002C01092F1008091E80085FDFACF8AE362
:100890008093E8009F918F910F900FBE0F901F9053
:1008A00018951F920F920FB60F9211242F933F931A
:1008B0004F935F936F937F938F939F93AF93BF9368
:1008C000CF93DF93EF93FF931092E9008091E800BC
:1008D00083FF2CC14091F1003091F1008091F10033
:1008E000A82FB0E02091F100922F80E0A82BB92B27
:1008F0008091F100682F70E02091F100922F80E04C
:10090000682B792B8091F100C82FD0E02091F10065
:10091000922F80E0C82BD92B82EF8093E8003630ED
:1009200009F056C02CEB30E0A90145505040F901C8
:100930003797859194918A179B07E1F4FA01859185
:10094000949186179707B1F49A012E5F3F4FF901F2
:10095000659174912E5F3F4FF9012491CE01CF3FF5
:10096000D10519F010F08FEF90E0422F821758F464
:10097000482F09C0295F3F4F495F5F4FF0E02D3E90
:100980003F07A9F6D3C05EEF8091E800282F30E042
:10099000C90185709070892BB9F322FDCAC0342F2C
:1009A000413208F030E2232FCB0106C0FC01019652
:1009B000E491E093F10021502223C1F7630F711DF0
:1009C000431B5093E8004423F9F63032E9F2B1C0FA
:1009D000353061F48EEF8093E8008091E80080FF6D
:1009E000FCCF8A2F80688093E300A3C0393031F5B3
:1009F000442309F09BC0A09307038EEF8093E80087
:100A000086EE90E021E02093E900FC010196E4915C
:100A1000E093EB00EE2369F0AC014F5F5F4FFC0108
:100A200084918093EC00CA010196FA0134913093CD
:100A3000ED002F5F253039F78EE14DC0383061F47D
:100A4000403809F073C08091E80080FFFCCF8091AE
:100A500007038093F1001BC03323E9F48091E80081
:100A600080FFFCCF423811F080E00DC06093E900B8
:100A70008091EB0090E025E0969587952A95E1F727
:100A800081701092E9008093F1001092F1008EEFD6
:100A90008093E8004EC0313019F0333009F046C081
:100AA0004230F1F4AB2BE1F4262F2F77822F8150C7
:100AB0008430B0F48EEF8093E8002093E900333067
:100AC000A9F189E18093EB0081E090E002C0880FFA
:100AD000991F2A95E2F78093EA001092EA0029C054
:100AE000313021F5413A11F5672B01F54C2F5EEFBE
:100AF0008091E800282F30E0C90185709070892B23
:100B0000B9F322FD16C0942F413208F090E2892FEC
:100B100003C01092F10081508823D9F7491B5093EC
:100B2000E800442329F7903219F303C081E280934F
:100B3000EB00FF91EF91DF91CF91BF91AF919F912A
:100B40008F917F916F915F914F913F912F910F9076
:100B50000FBE0F901F901895982F8A3010F087E3E2
:100B600001C080E3890F17CE1F93182F82958F70D5
:100B7000F3DF812F8F70F0DF1F9108951F93182FDF
:100B8000892FF2DF812FF0DF1F9108951F93CF93FC
:100B9000DF93EC01FE0121961491112339F01A30F4
:100BA00011F48DE0F8DD812FF6DDF4CFDF91CF91E8
:100BB0001F9108950CD0EBC0E3D040F0DAD030F0B4
:100BC00021F45F3F19F0CCC0511115C1CFC0F0D056
:100BD00098F39923C9F35523B1F3951B550BBB2704
:100BE000AA2762177307840738F09F5F5F4F220FB1
:100BF000331F441FAA1FA9F333D00E2E3AF0E0E8AA
:100C000030D091505040E695001CCAF729D0FE2FF5
:100C100027D0660F771F881FBB1F26173707480787
:100C2000AB07B0E809F0BB0B802DBF01FF2793583D
:100C30005F4F2AF09E3F510568F092C0DCC05F3FD5
:100C4000ECF3983EDCF3869577956795B795F79525
:100C50009F5FC9F7880F911D9695879597F908951D
:100C6000E1E0660F771F881FBB1F621773078407B9
:100C7000BA0720F0621B730B840BBA0BEE1F88F7C8
:100C8000E095089504D06894B111B5C0089598D046
:100C900088F09F5790F0B92F9927B751A0F0D1F065
:100CA000660F771F881F991F1AF0BA95C9F712C0EF
:100CB000B13081F09FD0B1E008959CC0672F782FAC
:100CC0008827B85F39F0B93FCCF38695779567955B
:100CD000B395D9F73EF490958095709561957F4FC7
:100CE0008F4F9F4F0895E89409C097FB3EF490956D
:100CF0008095709561957F4F8F4F9F4F9923A9F0F5
:100D0000F92F96E9BB279395F69587957795679583
:100D1000B795F111F8CFFAF4BB0F11F460FF1BC0C7
:100D20006F5F7F4F8F4F9F4F16C0882311F096E95A
:100D300011C0772321F09EE8872F762F05C0662308
:100D400071F096E8862F70E060E02AF09A95660FC1
:100D5000771F881FDAF7880F9695879597F908957A
:100D600097F99F6780E870E060E008959FEF80EC5E
:100D7000089500240A941616170618060906089501
:100D800000240A9412161306140605060895092E67
:100D90000394000C11F4882352F0BB0F40F4BF2BD6
:100DA00011F460FF04C06F5F7F4F8F4F9F4F089516
:100DB00057FD9058440F551F59F05F3F71F047950C
:100DC000880F97FB991F61F09F3F79F087950895F1
:100DD000121613061406551FF2CF4695F1DF08C010
:100DE000161617061806991FF1CF8695710561052D
:100DF00008940895E894BB2766277727CB0197F9D5
:100E000008950BD0C4CFB5DF28F0BADF18F09523D2
:100E100009F0A6CFABCF1124EECFCADFA0F3959F88
:100E2000D1F3950F50E0551F629FF001729FBB27D1
:100E3000F00DB11D639FAA27F00DB11DAA1F649F7D
:100E40006627B00DA11D661F829F2227B00DA11D30
:100E5000621F739FB00DA11D621F839FA00D611DB6
:100E6000221F749F3327A00D611D231F849F600DD7
:100E7000211D822F762F6A2F11249F5750408AF010
:100E8000E1F088234AF0EE0FFF1FBB1F661F771F9C
:100E9000881F91505040A9F79E3F510570F060CFD8
:100EA000AACF5F3FECF3983EDCF386957795679584
:100EB000B795F795E7959F5FC1F7FE2B880F911DBA
:100EC0009695879597F9089597FB092E05260ED0DC
:100ED00057FD04D014D00AD0001C38F4509540952A
:100EE000309521953F4F4F4F5F4F0895F6F79095FE
:100EF0008095709561957F4F8F4F9F4F0895A1E228
:100F00001A2EAA1BBB1BFD010DC0AA1FBB1FEE1F83
:100F1000FF1FA217B307E407F50720F0A21BB30BCE
:100F2000E40BF50B661F771F881F991F1A9469F74A
:100F300060957095809590959B01AC01BD01CF01A6
:060F40000895F894FFCFB4
:00000001FF
