:10000000B3C00000C1C00000BFC00000BDC0000000
:10001000BBC00000B9C00000B7C00000B5C0000000
:10002000B3C00000B1C0000028C4000065C40000D7
:10003000ABC00000A9C00000A7C00000A5C0000020
:10004000A3C00000A1C000009FC000009DC0000030
:100050009BC0000099C0000097C0000016C30000BC
:1000600093C0000091C000008FC000008DC0000050
:100070008BC0000089C0000087C0000085C0000060
:1000800083C0000081C000007FC000007DC0000070
:100090007BC0000079C0000077C0000075C0000080
:1000A00073C0000071C000006FC0000000010000BC
:1000B000E3001200020000F50022002200001701F8
:1000C0001500210000070109000300002C010401B4
:1000D0000309043001140203090446012000000151
:1000E000C126001201000200000020C016790400A1
:1000F000010102000109022200010100C0320904CD
:100100000000010300000009211101000122150077
:10011000070583032000010631FF0974A153750808
:10012000150026FF00952009758102C0040309040B
:10013000140359006F007500720020004E0061002A
:100140006D0065000000200359006F00750072000B
:100150002000550053004200200044006500760056
:10016000690063006500000011241FBECFEFDAE0D4
:10017000DEBFCDBF14E0A0E0B1E001C01D92A73A00
:10018000B107E1F785D5CEC73BCF8154863050F516
:10019000683040F5442391F4E3E08E9FF001112490
:1001A00081E090E002C0880F991F6A95E2F721A1D3
:1001B000282B21A3809592A1982310C0E3E08E9F65
:1001C000F001112481E090E002C0880F991F6A9528
:1001D000E2F791A1982B91A392A1982B92A321E0F1
:1001E00030E002C020E030E0C9010895AF92BF9234
:1001F000CF92DF92EF92FF920F931F93CF93DF93F3
:10020000D82E7A018B01CB01BA0120E030E0A901A0
:1002100096D587FD4AC0C801B70120E030E040E82C
:100220005FE3DCD618160CF440C08D2D8F3208F039
:100230003CC02D2D30E083E190E0289FE001299F14
:10024000D00D389FD00D1124CC5FDE4FC801B7010F
:1002500020E030E048EC52E4C5D6E2D56A83A090B5
:100260000001B0900101C0900201D0900301C601CD
:10027000B50102D6A8019701B5D6CDD56B837C8395
:100280008D839E83A61AB70AC80AD90AAF82B88698
:10029000C986DA866B877C878D879E87AF86B88A0A
:1002A000C98ADA8A21E030E002C020E030E0C901EA
:1002B000DF91CF911F910F91FF90EF90DF90CF9042
:1002C000BF90AF900895CF93DF93EC015AD29E0177
:1002D00040E050E060E472E48FE090E0E6D62093E6
:1002E0000001309301014093020150930301F2E4B5
:1002F000F093040197E09093050184E48093170143
:100300001092180180932A0131E030932B018093E1
:100310003D01E2E0E0933E018093500173E0709371
:1003200051018093630164E06093640180937601DE
:1003300055E0509377018093890126E020938A014C
:1003400080939C0190939D0145E44093AF011092EE
:10035000B0014093C2013093C30183E48093D5017F
:100360001092D6018093E8013093E9018093FB015C
:10037000E093FC0180930E0270930F0280932102A0
:100380006093220280933402509335028093470297
:100390002093480280935A0290935B0286E48093F4
:1003A0006D0290936E02809380022093810280936D
:1003B0009302509394028093A6026093A7028093C5
:1003C000B9027093BA028093CC02E093CD0280937D
:1003D000DF023093E0028093F2021092F302409326
:1003E0000503209306034093180390931903F09399
:1003F0002B0310922C03F0933E0330933F03F093B2
:100400005103209352034093640360936503409328
:1004100077035093780381E480938A0310928B03CF
:1004200080939D0330939E038093B003E093B103C8
:100430008093C3037093C4038093D6036093D70360
:100440008093E9035093EA038093FC032093FD0318
:1004500080930F0490931004C4E0D1E01A821B82B1
:100460001C821D821E821F82188619861A861B8690
:100470001C861D861E861F86188A198A1A8A8881FC
:10048000698140E082DE639684E0C138D80731F7A5
:1004900081E090E0DF91CF910895EF92FF920F936A
:1004A0001F93CF93DF9347D16093810470938204AD
:1004B0008093830490938404209185043091860472
:1004C00040918704509188047B018C01E21AF30A61
:1004D000040B150BE0928904F0928A0400938B04BC
:1004E00010938C0460938504709386048093870432
:1004F00090938804C4E0D1E08A818150833608F06B
:100500005DC0EB84FC840D851E851E141F0410063F
:100510001106D4F48091890490918A04A0918B04EF
:10052000B0918C04E81AF90A0A0B1B0BEB86FC86C7
:100530000D871E871E141F04100611060CF43EC002
:100540008881698140E039C08F859889A989BA89F5
:10055000181619061A061B068CF52091890430918D
:100560008A0440918B0450918C04821B930BA40B42
:10057000B50B8F87988BA98BBA8B181619061A069C
:100580001B06E4F02B813C814D815E812E193F09D1
:10059000400B510B2B873C874D875E872F81388519
:1005A00049855A85281B390B4A0B5B0B2F87388BE3
:1005B000498B5A8B8881698141E0E7DD639604E0CD
:1005C000C138D00709F098CFDF91CF911F910F91DB
:1005D000FF90EF9008950F931F93CF93DF93082F11
:1005E000162F653640F5282F30E083E190E0289FF4
:1005F000E001299FD00D389FD00D1124CC5FDE4F34
:100600006A8370E080E090E037D420E030E048EC8E
:1006100052E499D3AB01BC01802FE8DD112321F412
:100620008881698140E005C0143641F48881698180
:1006300041E0ABDD03C020E030E002C021E030E06B
:10064000C901DF91CF911F910F9108954536C8F4EC
:10065000982F91549630A8F4683098F4E4E0F1E0D3
:1006600090E02081281749F42181261731F4892F41
:10067000642FB1DF21E030E006C09F5F73969F32A8
:1006800081F720E030E0C90108951F920F920FB664
:100690000F9211242F933F938F939F93AF93BF9308
:1006A0008091910490919204A0919304B09194044C
:1006B000309195040196A11DB11D232F2D5F2D377B
:1006C00020F02D570196A11DB11D20939504809314
:1006D000910490939204A0939304B0939404809116
:1006E0008D0490918E04A0918F04B0919004019696
:1006F000A11DB11D80938D0490938E04A0938F044F
:10070000B0939004BF91AF919F918F913F912F91A2
:100710000F900FBE0F901F9018958FB7F8942091EF
:1007200091043091920440919304509194048FBFAE
:10073000B901CA0108959FB7F89420918D043091B2
:100740008E0440918F045091900486B5A89B06C0FA
:100750008F3F21F02F5F3F4F4F4F5F4F9FBF542F71
:10076000432F322F2227280F311D411D511D82E0BA
:10077000220F331F441F551F8A95D1F7B901CA01B3
:100780000895789484B5826084BD84B5816084BD09
:1007900085B5826085BD85B5816085BDEEE6F0E0FA
:1007A000808181608083E1E8F0E010828081826056
:1007B0008083808181608083E0E8F0E080818160D7
:1007C0008083E1EBF0E0808184608083E0EBF0E007
:1007D000808181608083E1E9F0E0808182608083B4
:1007E000808181608083E0E9F0E0808181608083A6
:1007F000E1ECF0E08081846080838081826080838E
:10080000808181608083E3ECF0E08081816080837F
:10081000E0ECF0E0808182608083E2ECF0E08081B7
:1008200081608083EAE7F0E080818460808380815A
:100830008260808380818160808380818068808302
:1008400008958091E80080FFFCCF089581E08093B7
:10085000D70080EA8093D80082E189BD09B400FE08
:10086000FDCF80E98093D8001092E00010929604AA
:100870008CE08093E200789408951F920F920FB657
:100880000F9211248F939F938091E1001092E100C9
:1008900083FF0FC01092E90091E09093EB0010925B
:1008A000EC0092E29093ED0098E09093F0001092AB
:1008B000960482FF1AC0809196048823B1F080913B
:1008C0009704882391F0815080939704882369F4DA
:1008D00083E08093E90002C01092F1008091E8006B
:1008E00085FDFACF8AE38093E8009F918F910F9066
:1008F0000FBE0F901F9018951F920F920FB60F9278
:100900001124EF92FF920F931F932F933F934F93D6
:100910005F936F937F938F939F93AF93BF93EF9367
:10092000FF93DF93CF930F92CDB7DEB71092E9001C
:100930008091E80083FF1CC14091F1005091F100CB
:100940000091F10010E02091F100922F80E0082B3F
:10095000192B8091F100E82EFF242091F100922FB5
:1009600080E0E82AF92A2091F10030E06091F1005E
:10097000962F80E0282B392B82EF8093E8005630A9
:1009800009F053C083EB90E0AC0145505040FC01AE
:1009900037976591749160177107C9F4FA016591F1
:1009A00074916E157F0599F44E5F5F4FFA01859142
:1009B00094914E5F5F4FFA0144912F3F310519F03A
:1009C00010F02FEF30E0241750F4422F08C00796A4
:1009D000495F5F4FF0E0843E9F07C9F6C9C0AEEFA4
:1009E0002091E80030E0B901657070706115710503
:1009F000B9F322FDC0C0542F413208F050E29C01EF
:100A0000652F07C0F9012F5F3F4FE491E093F1009C
:100A100061506623B9F7850F911D451BA093E8002F
:100A20004423F1F65032E1F2A6C0553041F48EEF86
:100A30008093E80006DF00680093E3009CC0593013
:100A400031F5442309F094C0009396048EEF80930F
:100A5000E80041E08DED90E04093E900FC01019653
:100A6000E491E093EB00EE2369F09C012F5F3F4F90
:100A7000FC0184918093EC00C9010196F901249155
:100A80002093ED004F5F453039F78EE146C0583076
:100A900049F4403809F06CC0D4DE8091960480930C
:100AA000F10016C05523C1F44983CBDE4981423899
:100AB00051F4E092E9009091EB0081E095FF80E035
:100AC0001092E90001C080E08093F1001092F100E3
:100AD0008EEF8093E8004FC0513019F0533009F089
:100AE00047C04230F9F401151105E1F46E2D6F771E
:100AF000862F81508430B0F48EEF8093E8006093AD
:100B0000E9005330A9F189E18093EB0081E090E0A6
:100B100002C0880F991F6A95E2F78093EA0010924D
:100B2000EA0029C0513021F5413A11F5E114F104F0
:100B3000F9F43EEF8091E80090E0AC014570507010
:100B400041155105B9F382FD16C0822F213208F0FC
:100B500080E2982F03C01092F10091509923D9F7A9
:100B6000281B3093E800222329F7803219F303C0B1
:100B700081E28093EB000F90CF91DF91FF91EF9195
:100B8000BF91AF919F918F917F916F915F914F91A5
:100B90003F912F911F910F91FF90EF900F900FBEFB
:100BA0000F901F901895EF92FF920F931F93E09074
:100BB0009904F0909A040027F7FC0095102FADDD02
:100BC000E616F7060807190730F08091990490910E
:100BD0009A04009799F5A1DD66507F4F70939A04AF
:100BE0006093990460919B0470919C04882777FD21
:100BF0008095982F43D120E030E04AE753E4A3D01A
:100C000020E030E040E252E4EDD105D170939E0443
:100C100060939D046536710534F084E690E090930E
:100C20009E0480939D0410929C0410929B0448E2C1
:100C300080919D04481B86E460E008DD6EDD6093D2
:100C40009F047093A0048093A1049093A20425DCD8
:100C500064DD9B01AC012093A3043093A404409372
:100C6000A5045093A60480919B0490919C046091EC
:100C70009F047091A004861B970B820F931F909383
:100C80009C0480939B041F910F91FF90EF90089517
:100C9000EF92FF920F931F93CF93DF9380E880939F
:100CA000610010926100D2DD8FEF93EDA0E38150DF
:100CB0009040A040E1F700C0000084E690E003DB34
:100CC00080E06FE088DC82E461E04FE5BFDC86E431
:100CD00060E049E1BBDC21DD92E3E92EF12CE60E78
:100CE000F71E01E010E0C0E0D0E017DD9B01AC0191
:100CF000C701A0E0B0E0281739074A075B07E8F012
:100D00000CDD82E3E82EF12CE60EF71EC436D10589
:100D10006CF41C161D061CF40130110521F42196FB
:100D200001E010E006C00115110519F4219700E05B
:100D300010E084E460E04C2F89DC35DFD6CFD9D0D9
:100D400008F481E008950CD00FC107D140F0FED027
:100D500030F021F45F3F19F0F0C0511139C1F3C0F8
:100D600014D198F39923C9F35523B1F3951B550B6F
:100D7000BB27AA2762177307840738F09F5F5F4F6E
:100D8000220F331F441FAA1FA9F333D00E2E3AF0AF
:100D9000E0E830D091505040E695001CCAF729D0C9
:100DA000FE2F27D0660F771F881FBB1F2617370718
:100DB0004807AB07B0E809F0BB0B802DBF01FF2748
:100DC00093585F4F2AF09E3F510568F0B6C000C1AE
:100DD0005F3FECF3983EDCF3869577956795B79582
:100DE000F7959F5FC9F7880F911D9695879597F99D
:100DF0000895E1E0660F771F881FBB1F6217730716
:100E00008407BA0720F0621B730B840BBA0BEE1F2A
:100E100088F7E095089504D06894B111D9C0089579
:100E2000BCD088F09F5790F0B92F9927B751A0F008
:100E3000D1F0660F771F881F991F1AF0BA95C9F76E
:100E400012C0B13081F0C3D0B1E00895C0C0672FA7
:100E5000782F8827B85F39F0B93FCCF3869577951E
:100E60006795B395D9F73EF4909580957095619507
:100E70007F4F8F4F9F4F0895E89409C097FB3EF432
:100E800090958095709561957F4F8F4F9F4F9923D7
:100E9000A9F0F92F96E9BB279395F6958795779555
:100EA0006795B795F111F8CFFAF4BB0F11F460FF15
:100EB0001BC06F5F7F4F8F4F9F4F16C0882311F06D
:100EC00096E911C0772321F09EE8872F762F05C081
:100ED000662371F096E8862F70E060E02AF09A951C
:100EE000660F771F881FDAF7880F9695879597F911
:100EF0000895990F0008550FAA0BE0E8FEEF1616AB
:100F00001706E807F907C0F012161306E407F507FD
:100F100098F0621B730B840B950B39F40A2661F071
:100F2000232B242B252B21F408950A2609F4A14014
:100F3000A6958FEF811D811D089597F99F6780E821
:100F400070E060E008959FEF80EC089500240A941B
:100F50001616170618060906089500240A94121694
:100F60001306140605060895092E0394000C11F4C7
:100F7000882352F0BB0F40F4BF2B11F460FF04C074
:100F80006F5F7F4F8F4F9F4F089557FD9058440FCD
:100F9000551F59F05F3F71F04795880F97FB991FD8
:100FA00061F09F3F79F08795089512161306140695
:100FB000551FF2CF4695F1DF08C016161706180622
:100FC000991FF1CF86957105610508940895E894FD
:100FD000BB2766277727CB0197F908958ADF08F4A6
:100FE0008FEF08950BD0C0CFB1DF28F0B6DF18F037
:100FF000952309F0A2CFA7CF1124EACFC6DFA0F333
:10100000959FD1F3950F50E0551F629FF001729F9D
:10101000BB27F00DB11D639FAA27F00DB11DAA1FBC
:10102000649F6627B00DA11D661F829F2227B00D09
:10103000A11D621F739FB00DA11D621F839FA00D94
:10104000611D221F749F3327A00D611D231F849FE4
:10105000600D211D822F762F6A2F11249F5750403B
:101060008AF0E1F088234AF0EE0FFF1FBB1F661FD6
:10107000771F881F91505040A9F79E3F510570F08F
:101080005CCFA6CF5F3FECF3983EDCF38695779577
:101090006795B795F795E7959F5FC1F7FE2B880F8A
:1010A000911D9695879597F9089597FB092E05262A
:1010B0000ED057FD04D014D00AD0001C38F450953F
:1010C0004095309521953F4F4F4F5F4F0895F6F76C
:1010D00090958095709561957F4F8F4F9F4F0895A4
:1010E000A1E21A2EAA1BBB1BFD010DC0AA1FBB1F2C
:1010F000EE1FFF1FA217B307E407F50720F0A21B9E
:10110000B30BE40BF50B661F771F881F991F1A940A
:1011100069F760957095809590959B01AC01BD0134
:08112000CF010895F894FFCF00
:00000001FF
